{
  "contractName": "BlockCred",
  "abi": [
    {
      "constant": true,
      "inputs": [],
      "name": "certificateCount",
      "outputs": [
        {
          "internalType": "uint256",
          "name": "",
          "type": "uint256"
        }
      ],
      "payable": false,
      "stateMutability": "view",
      "type": "function"
    },
    {
      "constant": true,
      "inputs": [
        {
          "internalType": "uint256",
          "name": "",
          "type": "uint256"
        }
      ],
      "name": "certificates",
      "outputs": [
        {
          "internalType": "uint256",
          "name": "identity",
          "type": "uint256"
        },
        {
          "internalType": "uint256",
          "name": "recipients",
          "type": "uint256"
        },
        {
          "internalType": "string",
          "name": "certificateName",
          "type": "string"
        },
        {
          "internalType": "uint256",
          "name": "certificateCost",
          "type": "uint256"
        },
        {
          "internalType": "address payable",
          "name": "author",
          "type": "address"
        }
      ],
      "payable": false,
      "stateMutability": "view",
      "type": "function"
    },
    {
      "constant": false,
      "inputs": [
        {
          "internalType": "string",
          "name": "name",
          "type": "string"
        },
        {
          "internalType": "uint256",
          "name": "cost",
          "type": "uint256"
        }
      ],
      "name": "newCertificate",
      "outputs": [],
      "payable": false,
      "stateMutability": "nonpayable",
      "type": "function"
    },
    {
      "constant": false,
      "inputs": [
        {
          "internalType": "uint256",
          "name": "_id",
          "type": "uint256"
        },
        {
          "internalType": "uint256",
          "name": "cost",
          "type": "uint256"
        }
      ],
      "name": "purchaseCertificate",
      "outputs": [],
      "payable": true,
      "stateMutability": "payable",
      "type": "function"
    },
    {
      "constant": true,
      "inputs": [
        {
          "internalType": "uint256",
          "name": "_contractId",
          "type": "uint256"
        },
        {
          "internalType": "address",
          "name": "_student",
          "type": "address"
        }
      ],
      "name": "checkValidity",
      "outputs": [
        {
          "internalType": "bool",
          "name": "",
          "type": "bool"
        }
      ],
      "payable": false,
      "stateMutability": "view",
      "type": "function"
    }
  ],
  "bytecode": "0x60806040526000805534801561001457600080fd5b506107cc806100246000396000f3fe60806040526004361061004a5760003560e01c80633e2d856b1461004f57806352d7b89c14610087578063663b3e22146100b25780637c08a1b5146101ae57806397d5026e14610280575b600080fd5b6100856004803603604081101561006557600080fd5b8101908080359060200190929190803590602001909291905050506102f3565b005b34801561009357600080fd5b5061009c6104e6565b6040518082815260200191505060405180910390f35b3480156100be57600080fd5b506100eb600480360360208110156100d557600080fd5b81019080803590602001909291905050506104ec565b60405180868152602001858152602001806020018481526020018373ffffffffffffffffffffffffffffffffffffffff1673ffffffffffffffffffffffffffffffffffffffff168152602001828103825285818151815260200191508051906020019080838360005b8381101561016f578082015181840152602081019050610154565b50505050905090810190601f16801561019c5780820380516001836020036101000a031916815260200191505b50965050505050505060405180910390f35b3480156101ba57600080fd5b5061027e600480360360408110156101d157600080fd5b81019080803590602001906401000000008111156101ee57600080fd5b82018360208201111561020057600080fd5b8035906020019184600183028401116401000000008311171561022257600080fd5b91908080601f016020809104026020016040519081016040528093929190818152602001838380828437600081840152601f19601f820116905080830192505050505050509192919290803590602001909291905050506105da565b005b34801561028c57600080fd5b506102d9600480360360408110156102a357600080fd5b8101908080359060200190929190803573ffffffffffffffffffffffffffffffffffffffff169060200190929190505050610682565b604051808215151515815260200191505060405180910390f35b60008211801561030557506000548211155b610377576040517f08c379a000000000000000000000000000000000000000000000000000000000815260040180806020018281038252600c8152602001807f4964206e6f742076616c6964000000000000000000000000000000000000000081525060200191505060405180910390fd5b600060016000848152602001908152602001600020905060018160050160003373ffffffffffffffffffffffffffffffffffffffff1673ffffffffffffffffffffffffffffffffffffffff16815260200190815260200160002060006101000a81548160ff0219169083151502179055508060030154821015610462576040517f08c379a000000000000000000000000000000000000000000000000000000000815260040180806020018281038252601f8152602001807f5468697320636572746966696361746520697320776f727468206d6f72652e0081525060200191505060405180910390fd5b8060040160009054906101000a900473ffffffffffffffffffffffffffffffffffffffff1673ffffffffffffffffffffffffffffffffffffffff166108fc349081150290604051600060405180830381858888f193505050501580156104cc573d6000803e3d6000fd5b508060010160008154809291906001019190505550505050565b60005481565b6001602052806000526040600020600091509050806000015490806001015490806002018054600181600116156101000203166002900480601f0160208091040260200160405190810160405280929190818152602001828054600181600116156101000203166002900480156105a45780601f10610579576101008083540402835291602001916105a4565b820191906000526020600020905b81548152906001019060200180831161058757829003601f168201915b5050505050908060030154908060040160009054906101000a900473ffffffffffffffffffffffffffffffffffffffff16905085565b6000600160008054815260200190815260200160002090506000548160000181905550828160020190805190602001906106159291906106f2565b50338160040160006101000a81548173ffffffffffffffffffffffffffffffffffffffff021916908373ffffffffffffffffffffffffffffffffffffffff160217905550600081600101819055508181600301819055506000808154809291906001019190505550505050565b6000806001600085815260200190815260200160002090508060050160008473ffffffffffffffffffffffffffffffffffffffff1673ffffffffffffffffffffffffffffffffffffffff16815260200190815260200160002060009054906101000a900460ff1691505092915050565b828054600181600116156101000203166002900490600052602060002090601f016020900481019282601f1061073357805160ff1916838001178555610761565b82800160010185558215610761579182015b82811115610760578251825591602001919060010190610745565b5b50905061076e9190610772565b5090565b61079491905b80821115610790576000816000905550600101610778565b5090565b9056fea265627a7a7231582054ae881c7ae890ba2783118dcdca92dba87147d331cae1cf81be1be3df3ab3c364736f6c63430005100032",
  "source": "pragma solidity >=0.5.0;\n\ncontract BlockCred {\n\n    uint public certificateCount = 0;\n    mapping(uint => Certificate) public certificates;\n    \n    struct Certificate {\n        uint identity;\n        uint recipients;\n        string certificateName;\n        uint certificateCost;\n        address payable author;\n        mapping(address => bool) recipientsMapping;\n    }\n    \n    function newCertificate(string memory name, uint cost) public {\n        Certificate storage c = certificates[certificateCount];\n        c.identity = certificateCount;\n        c.certificateName = name;\n        c.author = msg.sender;\n        c.recipients = 0;\n        c.certificateCost = cost;\n        certificateCount++;\n    }\n    \n    function purchaseCertificate(uint _id, uint cost) public payable {\n        require(_id > 0 && _id <= certificateCount, 'Id not valid');\n        Certificate storage c = certificates[_id];\n        c.recipientsMapping[msg.sender] = true;\n        require(cost >= c.certificateCost, \"This certificate is worth more.\");\n        c.author.transfer(msg.value);\n        c.recipients++;\n    }\n    \n    function checkValidity(uint _contractId, address _student) public view returns (bool) {\n        Certificate storage c = certificates[_contractId];\n        return(c.recipientsMapping[_student]);\n    }\n    \n}",
  "sourcePath": "/Users/skhiearth/Desktop/BlockCred/BlockCred/src/contracts/BlockCred.sol",
  "compiler": {
    "name": "solc",
    "version": "0.5.16+commit.9c3226ce.Emscripten.clang"
  },
  "schemaVersion": "3.3.0",
  "updatedAt": "2020-10-27T10:09:57.897Z",
  "networkType": "ethereum",
  "devdoc": {
    "methods": {}
  },
  "userdoc": {
    "methods": {}
  }
}