{
  "contractName": "BlockCred",
  "abi": [
    {
      "constant": true,
      "inputs": [],
      "name": "certificateCount",
      "outputs": [
        {
          "internalType": "uint256",
          "name": "",
          "type": "uint256"
        }
      ],
      "payable": false,
      "stateMutability": "view",
      "type": "function"
    },
    {
      "constant": true,
      "inputs": [
        {
          "internalType": "uint256",
          "name": "",
          "type": "uint256"
        }
      ],
      "name": "certificates",
      "outputs": [
        {
          "internalType": "uint256",
          "name": "identity",
          "type": "uint256"
        },
        {
          "internalType": "uint256",
          "name": "recipients",
          "type": "uint256"
        },
        {
          "internalType": "string",
          "name": "certificateName",
          "type": "string"
        },
        {
          "internalType": "uint256",
          "name": "certificateCost",
          "type": "uint256"
        },
        {
          "internalType": "address payable",
          "name": "author",
          "type": "address"
        }
      ],
      "payable": false,
      "stateMutability": "view",
      "type": "function"
    },
    {
      "constant": false,
      "inputs": [
        {
          "internalType": "string",
          "name": "name",
          "type": "string"
        },
        {
          "internalType": "uint256",
          "name": "cost",
          "type": "uint256"
        }
      ],
      "name": "newCertificate",
      "outputs": [],
      "payable": false,
      "stateMutability": "nonpayable",
      "type": "function"
    },
    {
      "constant": false,
      "inputs": [
        {
          "internalType": "uint256",
          "name": "_id",
          "type": "uint256"
        },
        {
          "internalType": "address",
          "name": "student",
          "type": "address"
        }
      ],
      "name": "approveRequest",
      "outputs": [],
      "payable": true,
      "stateMutability": "payable",
      "type": "function"
    },
    {
      "constant": false,
      "inputs": [
        {
          "internalType": "uint256",
          "name": "_id",
          "type": "uint256"
        },
        {
          "internalType": "uint256",
          "name": "cost",
          "type": "uint256"
        }
      ],
      "name": "purchaseCertificate",
      "outputs": [],
      "payable": true,
      "stateMutability": "payable",
      "type": "function"
    },
    {
      "constant": true,
      "inputs": [
        {
          "internalType": "uint256",
          "name": "_contractId",
          "type": "uint256"
        },
        {
          "internalType": "address",
          "name": "_student",
          "type": "address"
        }
      ],
      "name": "checkValidity",
      "outputs": [
        {
          "internalType": "bool",
          "name": "",
          "type": "bool"
        }
      ],
      "payable": false,
      "stateMutability": "view",
      "type": "function"
    }
  ],
  "bytecode": "0x60806040526000805534801561001457600080fd5b50610918806100246000396000f3fe6080604052600436106100555760003560e01c80633e2d856b1461005a57806352d7b89c14610092578063663b3e22146100bd5780637c08a1b5146101b957806397d5026e1461028b578063bc045df8146102fe575b600080fd5b6100906004803603604081101561007057600080fd5b81019080803590602001909291908035906020019092919050505061034c565b005b34801561009e57600080fd5b506100a761043c565b6040518082815260200191505060405180910390f35b3480156100c957600080fd5b506100f6600480360360208110156100e057600080fd5b8101908080359060200190929190505050610442565b60405180868152602001858152602001806020018481526020018373ffffffffffffffffffffffffffffffffffffffff1673ffffffffffffffffffffffffffffffffffffffff168152602001828103825285818151815260200191508051906020019080838360005b8381101561017a57808201518184015260208101905061015f565b50505050905090810190601f1680156101a75780820380516001836020036101000a031916815260200191505b50965050505050505060405180910390f35b3480156101c557600080fd5b50610289600480360360408110156101dc57600080fd5b81019080803590602001906401000000008111156101f957600080fd5b82018360208201111561020b57600080fd5b8035906020019184600183028401116401000000008311171561022d57600080fd5b91908080601f016020809104026020016040519081016040528093929190818152602001838380828437600081840152601f19601f82011690508083019250505050505050919291929080359060200190929190505050610530565b005b34801561029757600080fd5b506102e4600480360360408110156102ae57600080fd5b8101908080359060200190929190803573ffffffffffffffffffffffffffffffffffffffff1690602001909291905050506105d8565b604051808215151515815260200191505060405180910390f35b61034a6004803603604081101561031457600080fd5b8101908080359060200190929190803573ffffffffffffffffffffffffffffffffffffffff169060200190929190505050610648565b005b600060016000848152602001908152602001600020905080600301548210156103dd576040517f08c379a000000000000000000000000000000000000000000000000000000000815260040180806020018281038252601f8152602001807f5468697320636572746966696361746520697320776f727468206d6f72652e0081525060200191505060405180910390fd5b60018160060160003373ffffffffffffffffffffffffffffffffffffffff1673ffffffffffffffffffffffffffffffffffffffff16815260200190815260200160002060006101000a81548160ff021916908315150217905550505050565b60005481565b6001602052806000526040600020600091509050806000015490806001015490806002018054600181600116156101000203166002900480601f0160208091040260200160405190810160405280929190818152602001828054600181600116156101000203166002900480156104fa5780601f106104cf576101008083540402835291602001916104fa565b820191906000526020600020905b8154815290600101906020018083116104dd57829003601f168201915b5050505050908060030154908060040160009054906101000a900473ffffffffffffffffffffffffffffffffffffffff16905085565b60006001600080548152602001908152602001600020905060005481600001819055508281600201908051906020019061056b92919061083e565b50338160040160006101000a81548173ffffffffffffffffffffffffffffffffffffffff021916908373ffffffffffffffffffffffffffffffffffffffff160217905550600081600101819055508181600301819055506000808154809291906001019190505550505050565b6000806001600085815260200190815260200160002090508060050160008473ffffffffffffffffffffffffffffffffffffffff1673ffffffffffffffffffffffffffffffffffffffff16815260200190815260200160002060009054906101000a900460ff1691505092915050565b60006001600084815260200190815260200160002090508060040160009054906101000a900473ffffffffffffffffffffffffffffffffffffffff1673ffffffffffffffffffffffffffffffffffffffff163373ffffffffffffffffffffffffffffffffffffffff1614610724576040517f08c379a00000000000000000000000000000000000000000000000000000000081526004018080602001828103825260168152602001807f596f7520617265206e6f7420617574686f72697365640000000000000000000081525060200191505060405180910390fd5b600115158160060160008473ffffffffffffffffffffffffffffffffffffffff1673ffffffffffffffffffffffffffffffffffffffff16815260200190815260200160002060009054906101000a900460ff16151514156108395760018160050160008473ffffffffffffffffffffffffffffffffffffffff1673ffffffffffffffffffffffffffffffffffffffff16815260200190815260200160002060006101000a81548160ff0219169083151502179055503373ffffffffffffffffffffffffffffffffffffffff166108fc82600301549081150290604051600060405180830381858888f19350505050158015610823573d6000803e3d6000fd5b5080600101600081548092919060010191905055505b505050565b828054600181600116156101000203166002900490600052602060002090601f016020900481019282601f1061087f57805160ff19168380011785556108ad565b828001600101855582156108ad579182015b828111156108ac578251825591602001919060010190610891565b5b5090506108ba91906108be565b5090565b6108e091905b808211156108dc5760008160009055506001016108c4565b5090565b9056fea265627a7a7231582062eb7ffbf388db392cf8796869addcae6044238cf9d9eaa54c6e78b9e398c57e64736f6c63430005100032",
  "source": "pragma solidity >=0.5.0;\n\ncontract BlockCred {\n\n    uint public certificateCount = 0;\n    mapping(uint => Certificate) public certificates;\n    \n    struct Certificate {\n        uint identity;\n        uint recipients;\n        string certificateName;\n        uint certificateCost;\n        address payable author;\n        mapping(address => bool) recipientsMapping;\n        mapping(address => bool) requests;\n    }\n    \n    function newCertificate(string memory name, uint cost) public {\n        Certificate storage c = certificates[certificateCount];\n        c.identity = certificateCount;\n        c.certificateName = name;\n        c.author = msg.sender;\n        c.recipients = 0;\n        c.certificateCost = cost;\n        certificateCount++;\n    }\n    \n    function approveRequest(uint _id, address student) public payable {\n        Certificate storage c = certificates[_id];\n        require(msg.sender == c.author, 'You are not authorised');\n        if(c.requests[student] == true){\n            c.recipientsMapping[student] = true;\n            msg.sender.transfer(c.certificateCost);\n            c.recipients++;\n        }\n    }\n    \n    function purchaseCertificate(uint _id, uint cost) public payable {\n        // require(_id > 0 && _id <= certificateCount, 'Id not valid');\n        Certificate storage c = certificates[_id];\n        require(cost >= c.certificateCost, \"This certificate is worth more.\");\n        c.requests[msg.sender] = true;\n    }\n    \n    function checkValidity(uint _contractId, address _student) public view returns (bool) {\n        Certificate storage c = certificates[_contractId];\n        return(c.recipientsMapping[_student]);\n    }\n    \n}",
  "sourcePath": "/Users/skhiearth/Desktop/BlockCred/BlockCred/src/contracts/BlockCred.sol",
  "compiler": {
    "name": "solc",
    "version": "0.5.16+commit.9c3226ce.Emscripten.clang"
  },
  "schemaVersion": "3.3.0",
  "updatedAt": "2020-10-28T17:08:03.905Z",
  "networkType": "ethereum",
  "devdoc": {
    "methods": {}
  },
  "userdoc": {
    "methods": {}
  }
}