{
  "contractName": "BlockCred",
  "abi": [
    {
      "constant": true,
      "inputs": [],
      "name": "certificateCount",
      "outputs": [
        {
          "internalType": "uint256",
          "name": "",
          "type": "uint256"
        }
      ],
      "payable": false,
      "stateMutability": "view",
      "type": "function"
    },
    {
      "constant": true,
      "inputs": [
        {
          "internalType": "uint256",
          "name": "",
          "type": "uint256"
        }
      ],
      "name": "certificates",
      "outputs": [
        {
          "internalType": "uint256",
          "name": "identity",
          "type": "uint256"
        },
        {
          "internalType": "uint256",
          "name": "recipients",
          "type": "uint256"
        },
        {
          "internalType": "string",
          "name": "certificateName",
          "type": "string"
        },
        {
          "internalType": "uint256",
          "name": "certificateCost",
          "type": "uint256"
        },
        {
          "internalType": "uint256",
          "name": "holding",
          "type": "uint256"
        },
        {
          "internalType": "address payable",
          "name": "author",
          "type": "address"
        }
      ],
      "payable": false,
      "stateMutability": "view",
      "type": "function"
    },
    {
      "constant": true,
      "inputs": [
        {
          "internalType": "uint256",
          "name": "",
          "type": "uint256"
        }
      ],
      "name": "requests",
      "outputs": [
        {
          "internalType": "uint256",
          "name": "id",
          "type": "uint256"
        },
        {
          "internalType": "uint256",
          "name": "certificateId",
          "type": "uint256"
        },
        {
          "internalType": "address",
          "name": "certificateOwner",
          "type": "address"
        },
        {
          "internalType": "address",
          "name": "studentId",
          "type": "address"
        },
        {
          "internalType": "bool",
          "name": "approved",
          "type": "bool"
        }
      ],
      "payable": false,
      "stateMutability": "view",
      "type": "function"
    },
    {
      "constant": true,
      "inputs": [],
      "name": "requestsCount",
      "outputs": [
        {
          "internalType": "uint256",
          "name": "",
          "type": "uint256"
        }
      ],
      "payable": false,
      "stateMutability": "view",
      "type": "function"
    },
    {
      "constant": false,
      "inputs": [
        {
          "internalType": "string",
          "name": "name",
          "type": "string"
        },
        {
          "internalType": "uint256",
          "name": "cost",
          "type": "uint256"
        }
      ],
      "name": "newCertificate",
      "outputs": [],
      "payable": false,
      "stateMutability": "nonpayable",
      "type": "function"
    },
    {
      "constant": false,
      "inputs": [
        {
          "internalType": "uint256",
          "name": "_id",
          "type": "uint256"
        },
        {
          "internalType": "address",
          "name": "student",
          "type": "address"
        },
        {
          "internalType": "uint256",
          "name": "reqid",
          "type": "uint256"
        }
      ],
      "name": "approveRequest",
      "outputs": [],
      "payable": true,
      "stateMutability": "payable",
      "type": "function"
    },
    {
      "constant": false,
      "inputs": [
        {
          "internalType": "uint256",
          "name": "_id",
          "type": "uint256"
        },
        {
          "internalType": "uint256",
          "name": "cost",
          "type": "uint256"
        }
      ],
      "name": "purchaseCertificate",
      "outputs": [],
      "payable": true,
      "stateMutability": "payable",
      "type": "function"
    },
    {
      "constant": true,
      "inputs": [
        {
          "internalType": "uint256",
          "name": "_contractId",
          "type": "uint256"
        },
        {
          "internalType": "address",
          "name": "_student",
          "type": "address"
        }
      ],
      "name": "checkValidity",
      "outputs": [
        {
          "internalType": "bool",
          "name": "",
          "type": "bool"
        }
      ],
      "payable": false,
      "stateMutability": "view",
      "type": "function"
    }
  ],
  "bytecode": "0x608060405260008055600060015534801561001957600080fd5b50610bcc806100296000396000f3fe60806040526004361061007b5760003560e01c806381d12c581161004e57806381d12c58146102b857806397d5026e1461037f578063cd81b43a146103f2578063fbfa4b7f1461044a5761007b565b80633e2d856b1461008057806352d7b89c146100b8578063663b3e22146100e35780637c08a1b5146101e6575b600080fd5b6100b66004803603604081101561009657600080fd5b810190808035906020019092919080359060200190929190505050610475565b005b3480156100c457600080fd5b506100cd610604565b6040518082815260200191505060405180910390f35b3480156100ef57600080fd5b5061011c6004803603602081101561010657600080fd5b810190808035906020019092919050505061060a565b60405180878152602001868152602001806020018581526020018481526020018373ffffffffffffffffffffffffffffffffffffffff1673ffffffffffffffffffffffffffffffffffffffff168152602001828103825286818151815260200191508051906020019080838360005b838110156101a657808201518184015260208101905061018b565b50505050905090810190601f1680156101d35780820380516001836020036101000a031916815260200191505b5097505050505050505060405180910390f35b3480156101f257600080fd5b506102b66004803603604081101561020957600080fd5b810190808035906020019064010000000081111561022657600080fd5b82018360208201111561023857600080fd5b8035906020019184600183028401116401000000008311171561025a57600080fd5b91908080601f016020809104026020016040519081016040528093929190818152602001838380828437600081840152601f19601f820116905080830192505050505050509192919290803590602001909291905050506106fe565b005b3480156102c457600080fd5b506102f1600480360360208110156102db57600080fd5b81019080803590602001909291905050506107b0565b604051808681526020018581526020018473ffffffffffffffffffffffffffffffffffffffff1673ffffffffffffffffffffffffffffffffffffffff1681526020018373ffffffffffffffffffffffffffffffffffffffff1673ffffffffffffffffffffffffffffffffffffffff168152602001821515151581526020019550505050505060405180910390f35b34801561038b57600080fd5b506103d8600480360360408110156103a257600080fd5b8101908080359060200190929190803573ffffffffffffffffffffffffffffffffffffffff169060200190929190505050610833565b604051808215151515815260200191505060405180910390f35b6104486004803603606081101561040857600080fd5b8101908080359060200190929190803573ffffffffffffffffffffffffffffffffffffffff169060200190929190803590602001909291905050506108a3565b005b34801561045657600080fd5b5061045f610aec565b6040518082815260200191505060405180910390f35b60006002600084815260200190815260200160002090508060030154821015610506576040517f08c379a000000000000000000000000000000000000000000000000000000000815260040180806020018281038252601f8152602001807f5468697320636572746966696361746520697320776f727468206d6f72652e0081525060200191505060405180910390fd5b8181600401540181600401819055506000600360006001548152602001908152602001600020905060015481600001819055508160050160009054906101000a900473ffffffffffffffffffffffffffffffffffffffff168160020160006101000a81548173ffffffffffffffffffffffffffffffffffffffff021916908373ffffffffffffffffffffffffffffffffffffffff160217905550838160010181905550338160030160006101000a81548173ffffffffffffffffffffffffffffffffffffffff021916908373ffffffffffffffffffffffffffffffffffffffff16021790555060016000815480929190600101919050555050505050565b60005481565b6002602052806000526040600020600091509050806000015490806001015490806002018054600181600116156101000203166002900480601f0160208091040260200160405190810160405280929190818152602001828054600181600116156101000203166002900480156106c25780601f10610697576101008083540402835291602001916106c2565b820191906000526020600020905b8154815290600101906020018083116106a557829003601f168201915b5050505050908060030154908060040154908060050160009054906101000a900473ffffffffffffffffffffffffffffffffffffffff16905086565b600060026000805481526020019081526020016000209050600054816000018190555082816002019080519060200190610739929190610af2565b50338160050160006101000a81548173ffffffffffffffffffffffffffffffffffffffff021916908373ffffffffffffffffffffffffffffffffffffffff16021790555060008160010181905550818160030181905550600081600401819055506000808154809291906001019190505550505050565b60036020528060005260406000206000915090508060000154908060010154908060020160009054906101000a900473ffffffffffffffffffffffffffffffffffffffff16908060030160009054906101000a900473ffffffffffffffffffffffffffffffffffffffff16908060030160149054906101000a900460ff16905085565b6000806002600085815260200190815260200160002090508060060160008473ffffffffffffffffffffffffffffffffffffffff1673ffffffffffffffffffffffffffffffffffffffff16815260200190815260200160002060009054906101000a900460ff1691505092915050565b60006002600085815260200190815260200160002090508060050160009054906101000a900473ffffffffffffffffffffffffffffffffffffffff1673ffffffffffffffffffffffffffffffffffffffff163373ffffffffffffffffffffffffffffffffffffffff161461097f576040517f08c379a00000000000000000000000000000000000000000000000000000000081526004018080602001828103825260168152602001807f596f7520617265206e6f7420617574686f72697365640000000000000000000081525060200191505060405180910390fd5b60018160060160008573ffffffffffffffffffffffffffffffffffffffff1673ffffffffffffffffffffffffffffffffffffffff16815260200190815260200160002060006101000a81548160ff0219169083151502179055503373ffffffffffffffffffffffffffffffffffffffff166108fc82600301549081150290604051600060405180830381858888f19350505050158015610a23573d6000803e3d6000fd5b50806003015481600401540381600401819055506003600083815260200190815260200160002060008082016000905560018201600090556002820160006101000a81549073ffffffffffffffffffffffffffffffffffffffff02191690556003820160006101000a81549073ffffffffffffffffffffffffffffffffffffffff02191690556003820160146101000a81549060ff0219169055505080600101600081548092919060010191905055506001600081548092919060019003919050555050505050565b60015481565b828054600181600116156101000203166002900490600052602060002090601f016020900481019282601f10610b3357805160ff1916838001178555610b61565b82800160010185558215610b61579182015b82811115610b60578251825591602001919060010190610b45565b5b509050610b6e9190610b72565b5090565b610b9491905b80821115610b90576000816000905550600101610b78565b5090565b9056fea265627a7a723158209e869a37c4b827678430e95e35e57e7395eec44bc0ba63ad5e1b99b034cc2ec564736f6c63430005100032",
  "source": "pragma solidity >=0.5.0;\n\ncontract BlockCred {\n\n    uint public certificateCount = 0;\n    uint public requestsCount = 0;\n    mapping(uint => Certificate) public certificates;\n    mapping(uint => Request) public requests;\n    \n    struct Certificate {\n        uint identity;\n        uint recipients;\n        string certificateName;\n        uint certificateCost;\n        uint holding;\n        address payable author;\n        mapping(address => bool) recipientsMapping;\n    }\n    \n    struct Request {\n        uint id;\n        uint certificateId;\n        address certificateOwner;\n        address studentId;\n        bool approved;\n    }\n    \n    function newCertificate(string memory name, uint cost) public {\n        Certificate storage c = certificates[certificateCount];\n        c.identity = certificateCount;\n        c.certificateName = name;\n        c.author = msg.sender;\n        c.recipients = 0;\n        c.certificateCost = cost;\n        c.holding = 0;\n        certificateCount++;\n    }\n    \n    function approveRequest(uint _id, address student, uint reqid) public payable {\n        Certificate storage c = certificates[_id];\n        require(msg.sender == c.author, 'You are not authorised');\n        \n        c.recipientsMapping[student] = true;\n        msg.sender.transfer(c.certificateCost);\n        c.holding = c.holding - c.certificateCost;\n        delete requests[reqid];\n        c.recipients++;\n        requestsCount--;\n    }\n    \n    function purchaseCertificate(uint _id, uint cost) public payable {\n        // require(_id > 0 && _id <= certificateCount, 'Id not valid');\n        Certificate storage c = certificates[_id];\n        require(cost >= c.certificateCost, \"This certificate is worth more.\");\n        c.holding = c.holding + cost;\n        \n        Request storage r = requests[requestsCount];\n        r.id = requestsCount;\n        r.certificateOwner = c.author;\n        r.certificateId = _id;\n        r.studentId = msg.sender;\n        requestsCount++;\n    }\n    \n    function checkValidity(uint _contractId, address _student) public view returns (bool) {\n        Certificate storage c = certificates[_contractId];\n        return(c.recipientsMapping[_student]);\n    }\n    \n}",
  "sourcePath": "/Users/skhiearth/Desktop/BlockCred/BlockCred/src/contracts/BlockCred.sol",
  "compiler": {
    "name": "solc",
    "version": "0.5.16+commit.9c3226ce.Emscripten.clang"
  },
  "schemaVersion": "3.3.0",
  "updatedAt": "2020-10-28T19:37:35.990Z",
  "networkType": "ethereum",
  "devdoc": {
    "methods": {}
  },
  "userdoc": {
    "methods": {}
  }
}