{
  "contractName": "BlockCred",
  "abi": [
    {
      "constant": true,
      "inputs": [],
      "name": "certificateCount",
      "outputs": [
        {
          "internalType": "uint256",
          "name": "",
          "type": "uint256"
        }
      ],
      "payable": false,
      "stateMutability": "view",
      "type": "function"
    },
    {
      "constant": true,
      "inputs": [
        {
          "internalType": "uint256",
          "name": "",
          "type": "uint256"
        }
      ],
      "name": "certificates",
      "outputs": [
        {
          "internalType": "uint256",
          "name": "identity",
          "type": "uint256"
        },
        {
          "internalType": "uint256",
          "name": "recipients",
          "type": "uint256"
        },
        {
          "internalType": "string",
          "name": "certificateName",
          "type": "string"
        },
        {
          "internalType": "uint256",
          "name": "certificateCost",
          "type": "uint256"
        },
        {
          "internalType": "uint256",
          "name": "holding",
          "type": "uint256"
        },
        {
          "internalType": "address payable",
          "name": "author",
          "type": "address"
        }
      ],
      "payable": false,
      "stateMutability": "view",
      "type": "function"
    },
    {
      "constant": true,
      "inputs": [
        {
          "internalType": "uint256",
          "name": "",
          "type": "uint256"
        }
      ],
      "name": "requests",
      "outputs": [
        {
          "internalType": "uint256",
          "name": "id",
          "type": "uint256"
        },
        {
          "internalType": "string",
          "name": "certName",
          "type": "string"
        },
        {
          "internalType": "uint256",
          "name": "value",
          "type": "uint256"
        },
        {
          "internalType": "uint256",
          "name": "certificateId",
          "type": "uint256"
        },
        {
          "internalType": "address",
          "name": "certificateOwner",
          "type": "address"
        },
        {
          "internalType": "address payable",
          "name": "studentId",
          "type": "address"
        },
        {
          "internalType": "bool",
          "name": "approved",
          "type": "bool"
        }
      ],
      "payable": false,
      "stateMutability": "view",
      "type": "function"
    },
    {
      "constant": true,
      "inputs": [],
      "name": "requestsCount",
      "outputs": [
        {
          "internalType": "uint256",
          "name": "",
          "type": "uint256"
        }
      ],
      "payable": false,
      "stateMutability": "view",
      "type": "function"
    },
    {
      "constant": false,
      "inputs": [
        {
          "internalType": "string",
          "name": "name",
          "type": "string"
        },
        {
          "internalType": "uint256",
          "name": "cost",
          "type": "uint256"
        }
      ],
      "name": "newCertificate",
      "outputs": [],
      "payable": false,
      "stateMutability": "nonpayable",
      "type": "function"
    },
    {
      "constant": false,
      "inputs": [
        {
          "internalType": "string",
          "name": "name",
          "type": "string"
        },
        {
          "internalType": "address",
          "name": "recipient",
          "type": "address"
        }
      ],
      "name": "directCreation",
      "outputs": [],
      "payable": false,
      "stateMutability": "nonpayable",
      "type": "function"
    },
    {
      "constant": false,
      "inputs": [
        {
          "internalType": "uint256",
          "name": "_id",
          "type": "uint256"
        },
        {
          "internalType": "address",
          "name": "student",
          "type": "address"
        },
        {
          "internalType": "uint256",
          "name": "reqid",
          "type": "uint256"
        }
      ],
      "name": "approveRequest",
      "outputs": [],
      "payable": true,
      "stateMutability": "payable",
      "type": "function"
    },
    {
      "constant": false,
      "inputs": [
        {
          "internalType": "uint256",
          "name": "_id",
          "type": "uint256"
        },
        {
          "internalType": "address",
          "name": "student",
          "type": "address"
        },
        {
          "internalType": "uint256",
          "name": "reqid",
          "type": "uint256"
        }
      ],
      "name": "declineRequest",
      "outputs": [],
      "payable": true,
      "stateMutability": "payable",
      "type": "function"
    },
    {
      "constant": false,
      "inputs": [
        {
          "internalType": "uint256",
          "name": "_id",
          "type": "uint256"
        },
        {
          "internalType": "uint256",
          "name": "cost",
          "type": "uint256"
        }
      ],
      "name": "purchaseCertificate",
      "outputs": [],
      "payable": true,
      "stateMutability": "payable",
      "type": "function"
    },
    {
      "constant": true,
      "inputs": [
        {
          "internalType": "uint256",
          "name": "_contractId",
          "type": "uint256"
        },
        {
          "internalType": "address",
          "name": "_student",
          "type": "address"
        }
      ],
      "name": "checkValidity",
      "outputs": [
        {
          "internalType": "bool",
          "name": "",
          "type": "bool"
        }
      ],
      "payable": false,
      "stateMutability": "view",
      "type": "function"
    }
  ],
  "bytecode": "0x608060405260008055600060015534801561001957600080fd5b50611270806100296000396000f3fe6080604052600436106100915760003560e01c80637c08a1b5116100595780637c08a1b51461033c57806381d12c581461040e57806397d5026e14610548578063cd81b43a146105bb578063fbfa4b7f1461061357610091565b80633e2d856b146100965780634cd6f29e146100ce57806352d7b89c146101b6578063663b3e22146101e15780637a072507146102e4575b600080fd5b6100cc600480360360408110156100ac57600080fd5b81019080803590602001909291908035906020019092919050505061063e565b005b3480156100da57600080fd5b506101b4600480360360408110156100f157600080fd5b810190808035906020019064010000000081111561010e57600080fd5b82018360208201111561012057600080fd5b8035906020019184600183028401116401000000008311171561014257600080fd5b91908080601f016020809104026020016040519081016040528093929190818152602001838380828437600081840152601f19601f820116905080830192505050505050509192919290803573ffffffffffffffffffffffffffffffffffffffff1690602001909291905050506107fe565b005b3480156101c257600080fd5b506101cb61091f565b6040518082815260200191505060405180910390f35b3480156101ed57600080fd5b5061021a6004803603602081101561020457600080fd5b8101908080359060200190929190505050610925565b60405180878152602001868152602001806020018581526020018481526020018373ffffffffffffffffffffffffffffffffffffffff1673ffffffffffffffffffffffffffffffffffffffff168152602001828103825286818151815260200191508051906020019080838360005b838110156102a4578082015181840152602081019050610289565b50505050905090810190601f1680156102d15780820380516001836020036101000a031916815260200191505b5097505050505050505060405180910390f35b61033a600480360360608110156102fa57600080fd5b8101908080359060200190929190803573ffffffffffffffffffffffffffffffffffffffff16906020019092919080359060200190929190505050610a19565b005b34801561034857600080fd5b5061040c6004803603604081101561035f57600080fd5b810190808035906020019064010000000081111561037c57600080fd5b82018360208201111561038e57600080fd5b803590602001918460018302840111640100000000831117156103b057600080fd5b91908080601f016020809104026020016040519081016040528093929190818152602001838380828437600081840152601f19601f82011690508083019250505050505050919291929080359060200190929190505050610c95565b005b34801561041a57600080fd5b506104476004803603602081101561043157600080fd5b8101908080359060200190929190505050610d47565b60405180888152602001806020018781526020018681526020018573ffffffffffffffffffffffffffffffffffffffff1673ffffffffffffffffffffffffffffffffffffffff1681526020018473ffffffffffffffffffffffffffffffffffffffff1673ffffffffffffffffffffffffffffffffffffffff16815260200183151515158152602001828103825288818151815260200191508051906020019080838360005b838110156105075780820151818401526020810190506104ec565b50505050905090810190601f1680156105345780820380516001836020036101000a031916815260200191505b509850505050505050505060405180910390f35b34801561055457600080fd5b506105a16004803603604081101561056b57600080fd5b8101908080359060200190929190803573ffffffffffffffffffffffffffffffffffffffff169060200190929190505050610e6e565b604051808215151515815260200191505060405180910390f35b610611600480360360608110156105d157600080fd5b8101908080359060200190929190803573ffffffffffffffffffffffffffffffffffffffff16906020019092919080359060200190929190505050610ede565b005b34801561061f57600080fd5b506106286110c1565b6040518082815260200191505060405180910390f35b600060026000848152602001908152602001600020905080600301548210156106cf576040517f08c379a000000000000000000000000000000000000000000000000000000000815260040180806020018281038252601f8152602001807f5468697320636572746966696361746520697320776f727468206d6f72652e0081525060200191505060405180910390fd5b818160040154018160040181905550600060036000600154815260200190815260200160002090506001548160000181905550348160020181905550816002018160010190805460018160011615610100020316600290046107329291906110c7565b508160050160009054906101000a900473ffffffffffffffffffffffffffffffffffffffff168160040160006101000a81548173ffffffffffffffffffffffffffffffffffffffff021916908373ffffffffffffffffffffffffffffffffffffffff160217905550838160030181905550338160050160006101000a81548173ffffffffffffffffffffffffffffffffffffffff021916908373ffffffffffffffffffffffffffffffffffffffff16021790555060016000815480929190600101919050555050505050565b60006002600080548152602001908152602001600020905060005481600001819055508281600201908051906020019061083992919061114e565b50338160050160006101000a81548173ffffffffffffffffffffffffffffffffffffffff021916908373ffffffffffffffffffffffffffffffffffffffff16021790555060008160010181905550600081600301819055506000816004018190555060018160060160008473ffffffffffffffffffffffffffffffffffffffff1673ffffffffffffffffffffffffffffffffffffffff16815260200190815260200160002060006101000a81548160ff02191690831515021790555080600101600081548092919060010191905055506000808154809291906001019190505550505050565b60005481565b6002602052806000526040600020600091509050806000015490806001015490806002018054600181600116156101000203166002900480601f0160208091040260200160405190810160405280929190818152602001828054600181600116156101000203166002900480156109dd5780601f106109b2576101008083540402835291602001916109dd565b820191906000526020600020905b8154815290600101906020018083116109c057829003601f168201915b5050505050908060030154908060040154908060050160009054906101000a900473ffffffffffffffffffffffffffffffffffffffff16905086565b60006002600085815260200190815260200160002090508060050160009054906101000a900473ffffffffffffffffffffffffffffffffffffffff1673ffffffffffffffffffffffffffffffffffffffff163373ffffffffffffffffffffffffffffffffffffffff1614610af5576040517f08c379a00000000000000000000000000000000000000000000000000000000081526004018080602001828103825260168152602001807f596f7520617265206e6f7420617574686f72697365640000000000000000000081525060200191505060405180910390fd5b600060036000848152602001908152602001600020905060008160050160146101000a81548160ff0219169083151502179055508060050160009054906101000a900473ffffffffffffffffffffffffffffffffffffffff1673ffffffffffffffffffffffffffffffffffffffff166108fc349081150290604051600060405180830381858888f19350505050158015610b93573d6000803e3d6000fd5b5060036000848152602001908152602001600020600080820160009055600182016000610bc091906111ce565b600282016000905560038201600090556004820160006101000a81549073ffffffffffffffffffffffffffffffffffffffff02191690556005820160006101000a81549073ffffffffffffffffffffffffffffffffffffffff02191690556005820160146101000a81549060ff0219169055505060008260060160008673ffffffffffffffffffffffffffffffffffffffff1673ffffffffffffffffffffffffffffffffffffffff16815260200190815260200160002060006101000a81548160ff0219169083151502179055505050505050565b600060026000805481526020019081526020016000209050600054816000018190555082816002019080519060200190610cd092919061114e565b50338160050160006101000a81548173ffffffffffffffffffffffffffffffffffffffff021916908373ffffffffffffffffffffffffffffffffffffffff16021790555060008160010181905550818160030181905550600081600401819055506000808154809291906001019190505550505050565b6003602052806000526040600020600091509050806000015490806001018054600181600116156101000203166002900480601f016020809104026020016040519081016040528092919081815260200182805460018160011615610100020316600290048015610df95780601f10610dce57610100808354040283529160200191610df9565b820191906000526020600020905b815481529060010190602001808311610ddc57829003601f168201915b5050505050908060020154908060030154908060040160009054906101000a900473ffffffffffffffffffffffffffffffffffffffff16908060050160009054906101000a900473ffffffffffffffffffffffffffffffffffffffff16908060050160149054906101000a900460ff16905087565b6000806002600085815260200190815260200160002090508060060160008473ffffffffffffffffffffffffffffffffffffffff1673ffffffffffffffffffffffffffffffffffffffff16815260200190815260200160002060009054906101000a900460ff1691505092915050565b60006002600085815260200190815260200160002090508060050160009054906101000a900473ffffffffffffffffffffffffffffffffffffffff1673ffffffffffffffffffffffffffffffffffffffff163373ffffffffffffffffffffffffffffffffffffffff1614610fba576040517f08c379a00000000000000000000000000000000000000000000000000000000081526004018080602001828103825260168152602001807f596f7520617265206e6f7420617574686f72697365640000000000000000000081525060200191505060405180910390fd5b600060036000848152602001908152602001600020905060018160050160146101000a81548160ff02191690831515021790555060018260060160008673ffffffffffffffffffffffffffffffffffffffff1673ffffffffffffffffffffffffffffffffffffffff16815260200190815260200160002060006101000a81548160ff0219169083151502179055503373ffffffffffffffffffffffffffffffffffffffff166108fc83600301549081150290604051600060405180830381858888f19350505050158015611092573d6000803e3d6000fd5b508160030154826004015403826004018190555081600101600081548092919060010191905055505050505050565b60015481565b828054600181600116156101000203166002900490600052602060002090601f016020900481019282601f10611100578054855561113d565b8280016001018555821561113d57600052602060002091601f016020900482015b8281111561113c578254825591600101919060010190611121565b5b50905061114a9190611216565b5090565b828054600181600116156101000203166002900490600052602060002090601f016020900481019282601f1061118f57805160ff19168380011785556111bd565b828001600101855582156111bd579182015b828111156111bc5782518255916020019190600101906111a1565b5b5090506111ca9190611216565b5090565b50805460018160011615610100020316600290046000825580601f106111f45750611213565b601f0160209004906000526020600020908101906112129190611216565b5b50565b61123891905b8082111561123457600081600090555060010161121c565b5090565b9056fea265627a7a72315820ac5e997efcff359ef8a348878b364c78d433f36ec200281a7e387873e61e31fc64736f6c63430005100032",
  "source": "pragma solidity >=0.5.0;\n\ncontract BlockCred {\n\n    uint public certificateCount = 0;\n    uint public requestsCount = 0;\n    mapping(uint => Certificate) public certificates;\n    mapping(uint => Request) public requests;\n    \n    struct Certificate {\n        uint identity;\n        uint recipients;\n        string certificateName;\n        uint certificateCost;\n        uint holding;\n        address payable author;\n        mapping(address => bool) recipientsMapping;\n    }\n    \n    struct Request {\n        uint id;\n        string certName;\n        uint value;\n        uint certificateId;\n        address certificateOwner;\n        address payable studentId;\n        bool approved;\n    }\n    \n    function newCertificate(string memory name, uint cost) public {\n        Certificate storage c = certificates[certificateCount];\n        c.identity = certificateCount;\n        c.certificateName = name;\n        c.author = msg.sender;\n        c.recipients = 0;\n        c.certificateCost = cost;\n        c.holding = 0;\n        certificateCount++;\n    }\n    \n    function directCreation(string memory name, address recipient) public {\n        Certificate storage c = certificates[certificateCount];\n        c.identity = certificateCount;\n        c.certificateName = name;\n        c.author = msg.sender;\n        c.recipients = 0;\n        c.certificateCost = 0;\n        c.holding = 0;\n        c.recipientsMapping[recipient] = true;\n        c.recipients++;\n        certificateCount++;\n    }\n    \n    function approveRequest(uint _id, address student, uint reqid) public payable {\n        Certificate storage c = certificates[_id];\n        require(msg.sender == c.author, 'You are not authorised');\n\n        Request storage r = requests[reqid];\n        r.approved = true;\n        \n        c.recipientsMapping[student] = true;\n        msg.sender.transfer(c.certificateCost);\n        c.holding = c.holding - c.certificateCost;\n        c.recipients++;\n    }\n    \n    function declineRequest(uint _id, address student, uint reqid) public payable {\n        Certificate storage c = certificates[_id];\n        require(msg.sender == c.author, 'You are not authorised');\n\n        Request storage r = requests[reqid];\n        r.approved = false;\n        r.studentId.transfer(msg.value);\n        delete requests[reqid];\n        \n        c.recipientsMapping[student] = false;\n    }\n    \n    function purchaseCertificate(uint _id, uint cost) public payable {\n        Certificate storage c = certificates[_id];\n        require(cost >= c.certificateCost, \"This certificate is worth more.\");\n        c.holding = c.holding + cost;\n        \n        Request storage r = requests[requestsCount];\n        r.id = requestsCount;\n        r.value = msg.value;\n        r.certName = c.certificateName;\n        r.certificateOwner = c.author;\n        r.certificateId = _id;\n        r.studentId = msg.sender;\n        requestsCount++;\n    }\n    \n    function checkValidity(uint _contractId, address _student) public view returns (bool) {\n        Certificate storage c = certificates[_contractId];\n        return(c.recipientsMapping[_student]);\n    }\n    \n}",
  "sourcePath": "/Users/skhiearth/Desktop/BlockCred/BlockCred/src/contracts/BlockCred.sol",
  "compiler": {
    "name": "solc",
    "version": "0.5.16+commit.9c3226ce.Emscripten.clang"
  },
  "schemaVersion": "3.3.0",
  "updatedAt": "2020-10-29T14:04:20.247Z",
  "networkType": "ethereum",
  "devdoc": {
    "methods": {}
  },
  "userdoc": {
    "methods": {}
  }
}