{
  "contractName": "BlockCred",
  "abi": [
    {
      "constant": true,
      "inputs": [],
      "name": "certificateCount",
      "outputs": [
        {
          "internalType": "uint256",
          "name": "",
          "type": "uint256"
        }
      ],
      "payable": false,
      "stateMutability": "view",
      "type": "function"
    },
    {
      "constant": true,
      "inputs": [
        {
          "internalType": "uint256",
          "name": "",
          "type": "uint256"
        }
      ],
      "name": "certificates",
      "outputs": [
        {
          "internalType": "uint256",
          "name": "identity",
          "type": "uint256"
        },
        {
          "internalType": "uint256",
          "name": "recipients",
          "type": "uint256"
        },
        {
          "internalType": "string",
          "name": "certificateName",
          "type": "string"
        },
        {
          "internalType": "uint256",
          "name": "certificateCost",
          "type": "uint256"
        },
        {
          "internalType": "uint256",
          "name": "holding",
          "type": "uint256"
        },
        {
          "internalType": "address payable",
          "name": "author",
          "type": "address"
        }
      ],
      "payable": false,
      "stateMutability": "view",
      "type": "function"
    },
    {
      "constant": true,
      "inputs": [
        {
          "internalType": "uint256",
          "name": "",
          "type": "uint256"
        }
      ],
      "name": "requests",
      "outputs": [
        {
          "internalType": "uint256",
          "name": "id",
          "type": "uint256"
        },
        {
          "internalType": "uint256",
          "name": "certificateId",
          "type": "uint256"
        },
        {
          "internalType": "address",
          "name": "certificateOwner",
          "type": "address"
        },
        {
          "internalType": "address",
          "name": "studentId",
          "type": "address"
        },
        {
          "internalType": "bool",
          "name": "approved",
          "type": "bool"
        }
      ],
      "payable": false,
      "stateMutability": "view",
      "type": "function"
    },
    {
      "constant": true,
      "inputs": [],
      "name": "requestsCount",
      "outputs": [
        {
          "internalType": "uint256",
          "name": "",
          "type": "uint256"
        }
      ],
      "payable": false,
      "stateMutability": "view",
      "type": "function"
    },
    {
      "constant": false,
      "inputs": [
        {
          "internalType": "string",
          "name": "name",
          "type": "string"
        },
        {
          "internalType": "uint256",
          "name": "cost",
          "type": "uint256"
        }
      ],
      "name": "newCertificate",
      "outputs": [],
      "payable": false,
      "stateMutability": "nonpayable",
      "type": "function"
    },
    {
      "constant": false,
      "inputs": [
        {
          "internalType": "string",
          "name": "name",
          "type": "string"
        },
        {
          "internalType": "address",
          "name": "recipient",
          "type": "address"
        }
      ],
      "name": "directCreation",
      "outputs": [],
      "payable": false,
      "stateMutability": "nonpayable",
      "type": "function"
    },
    {
      "constant": false,
      "inputs": [
        {
          "internalType": "uint256",
          "name": "_id",
          "type": "uint256"
        },
        {
          "internalType": "address",
          "name": "student",
          "type": "address"
        },
        {
          "internalType": "uint256",
          "name": "reqid",
          "type": "uint256"
        }
      ],
      "name": "approveRequest",
      "outputs": [],
      "payable": true,
      "stateMutability": "payable",
      "type": "function"
    },
    {
      "constant": false,
      "inputs": [
        {
          "internalType": "uint256",
          "name": "_id",
          "type": "uint256"
        },
        {
          "internalType": "uint256",
          "name": "cost",
          "type": "uint256"
        }
      ],
      "name": "purchaseCertificate",
      "outputs": [],
      "payable": true,
      "stateMutability": "payable",
      "type": "function"
    },
    {
      "constant": true,
      "inputs": [
        {
          "internalType": "uint256",
          "name": "_contractId",
          "type": "uint256"
        },
        {
          "internalType": "address",
          "name": "_student",
          "type": "address"
        }
      ],
      "name": "checkValidity",
      "outputs": [
        {
          "internalType": "bool",
          "name": "",
          "type": "bool"
        }
      ],
      "payable": false,
      "stateMutability": "view",
      "type": "function"
    }
  ],
  "bytecode": "0x608060405260008055600060015534801561001957600080fd5b50610e50806100296000396000f3fe6080604052600436106100865760003560e01c80637c08a1b5116100595780637c08a1b5146102d957806381d12c58146103ab57806397d5026e14610472578063cd81b43a146104e5578063fbfa4b7f1461053d57610086565b80633e2d856b1461008b5780634cd6f29e146100c357806352d7b89c146101ab578063663b3e22146101d6575b600080fd5b6100c1600480360360408110156100a157600080fd5b810190808035906020019092919080359060200190929190505050610568565b005b3480156100cf57600080fd5b506101a9600480360360408110156100e657600080fd5b810190808035906020019064010000000081111561010357600080fd5b82018360208201111561011557600080fd5b8035906020019184600183028401116401000000008311171561013757600080fd5b91908080601f016020809104026020016040519081016040528093929190818152602001838380828437600081840152601f19601f820116905080830192505050505050509192919290803573ffffffffffffffffffffffffffffffffffffffff16906020019092919050505061077b565b005b3480156101b757600080fd5b506101c0610888565b6040518082815260200191505060405180910390f35b3480156101e257600080fd5b5061020f600480360360208110156101f957600080fd5b810190808035906020019092919050505061088e565b60405180878152602001868152602001806020018581526020018481526020018373ffffffffffffffffffffffffffffffffffffffff1673ffffffffffffffffffffffffffffffffffffffff168152602001828103825286818151815260200191508051906020019080838360005b8381101561029957808201518184015260208101905061027e565b50505050905090810190601f1680156102c65780820380516001836020036101000a031916815260200191505b5097505050505050505060405180910390f35b3480156102e557600080fd5b506103a9600480360360408110156102fc57600080fd5b810190808035906020019064010000000081111561031957600080fd5b82018360208201111561032b57600080fd5b8035906020019184600183028401116401000000008311171561034d57600080fd5b91908080601f016020809104026020016040519081016040528093929190818152602001838380828437600081840152601f19601f82011690508083019250505050505050919291929080359060200190929190505050610982565b005b3480156103b757600080fd5b506103e4600480360360208110156103ce57600080fd5b8101908080359060200190929190505050610a34565b604051808681526020018581526020018473ffffffffffffffffffffffffffffffffffffffff1673ffffffffffffffffffffffffffffffffffffffff1681526020018373ffffffffffffffffffffffffffffffffffffffff1673ffffffffffffffffffffffffffffffffffffffff168152602001821515151581526020019550505050505060405180910390f35b34801561047e57600080fd5b506104cb6004803603604081101561049557600080fd5b8101908080359060200190929190803573ffffffffffffffffffffffffffffffffffffffff169060200190929190505050610ab7565b604051808215151515815260200191505060405180910390f35b61053b600480360360608110156104fb57600080fd5b8101908080359060200190929190803573ffffffffffffffffffffffffffffffffffffffff16906020019092919080359060200190929190505050610b27565b005b34801561054957600080fd5b50610552610d70565b6040518082815260200191505060405180910390f35b60008211801561057a57506000548211155b6105ec576040517f08c379a000000000000000000000000000000000000000000000000000000000815260040180806020018281038252600c8152602001807f4964206e6f742076616c6964000000000000000000000000000000000000000081525060200191505060405180910390fd5b6000600260008481526020019081526020016000209050806003015482101561067d576040517f08c379a000000000000000000000000000000000000000000000000000000000815260040180806020018281038252601f8152602001807f5468697320636572746966696361746520697320776f727468206d6f72652e0081525060200191505060405180910390fd5b8181600401540181600401819055506000600360006001548152602001908152602001600020905060015481600001819055508160050160009054906101000a900473ffffffffffffffffffffffffffffffffffffffff168160020160006101000a81548173ffffffffffffffffffffffffffffffffffffffff021916908373ffffffffffffffffffffffffffffffffffffffff160217905550838160010181905550338160030160006101000a81548173ffffffffffffffffffffffffffffffffffffffff021916908373ffffffffffffffffffffffffffffffffffffffff16021790555060016000815480929190600101919050555050505050565b6000600260008054815260200190815260200160002090506000548160000181905550828160020190805190602001906107b6929190610d76565b50338160050160006101000a81548173ffffffffffffffffffffffffffffffffffffffff021916908373ffffffffffffffffffffffffffffffffffffffff16021790555060008160010181905550600081600301819055506000816004018190555060018160060160008473ffffffffffffffffffffffffffffffffffffffff1673ffffffffffffffffffffffffffffffffffffffff16815260200190815260200160002060006101000a81548160ff0219169083151502179055506000808154809291906001019190505550505050565b60005481565b6002602052806000526040600020600091509050806000015490806001015490806002018054600181600116156101000203166002900480601f0160208091040260200160405190810160405280929190818152602001828054600181600116156101000203166002900480156109465780601f1061091b57610100808354040283529160200191610946565b820191906000526020600020905b81548152906001019060200180831161092957829003601f168201915b5050505050908060030154908060040154908060050160009054906101000a900473ffffffffffffffffffffffffffffffffffffffff16905086565b6000600260008054815260200190815260200160002090506000548160000181905550828160020190805190602001906109bd929190610d76565b50338160050160006101000a81548173ffffffffffffffffffffffffffffffffffffffff021916908373ffffffffffffffffffffffffffffffffffffffff16021790555060008160010181905550818160030181905550600081600401819055506000808154809291906001019190505550505050565b60036020528060005260406000206000915090508060000154908060010154908060020160009054906101000a900473ffffffffffffffffffffffffffffffffffffffff16908060030160009054906101000a900473ffffffffffffffffffffffffffffffffffffffff16908060030160149054906101000a900460ff16905085565b6000806002600085815260200190815260200160002090508060060160008473ffffffffffffffffffffffffffffffffffffffff1673ffffffffffffffffffffffffffffffffffffffff16815260200190815260200160002060009054906101000a900460ff1691505092915050565b60006002600085815260200190815260200160002090508060050160009054906101000a900473ffffffffffffffffffffffffffffffffffffffff1673ffffffffffffffffffffffffffffffffffffffff163373ffffffffffffffffffffffffffffffffffffffff1614610c03576040517f08c379a00000000000000000000000000000000000000000000000000000000081526004018080602001828103825260168152602001807f596f7520617265206e6f7420617574686f72697365640000000000000000000081525060200191505060405180910390fd5b60018160060160008573ffffffffffffffffffffffffffffffffffffffff1673ffffffffffffffffffffffffffffffffffffffff16815260200190815260200160002060006101000a81548160ff0219169083151502179055503373ffffffffffffffffffffffffffffffffffffffff166108fc82600301549081150290604051600060405180830381858888f19350505050158015610ca7573d6000803e3d6000fd5b50806003015481600401540381600401819055506003600083815260200190815260200160002060008082016000905560018201600090556002820160006101000a81549073ffffffffffffffffffffffffffffffffffffffff02191690556003820160006101000a81549073ffffffffffffffffffffffffffffffffffffffff02191690556003820160146101000a81549060ff0219169055505080600101600081548092919060010191905055506001600081548092919060019003919050555050505050565b60015481565b828054600181600116156101000203166002900490600052602060002090601f016020900481019282601f10610db757805160ff1916838001178555610de5565b82800160010185558215610de5579182015b82811115610de4578251825591602001919060010190610dc9565b5b509050610df29190610df6565b5090565b610e1891905b80821115610e14576000816000905550600101610dfc565b5090565b9056fea265627a7a723158207a617fdabcf65b8d4278fbe10832746c8a81feae6da6f0c1973d8e81442ca89764736f6c63430005100032",
  "source": "pragma solidity >=0.5.0;\n\ncontract BlockCred {\n\n    uint public certificateCount = 0;\n    uint public requestsCount = 0;\n    mapping(uint => Certificate) public certificates;\n    mapping(uint => Request) public requests;\n    \n    struct Certificate {\n        uint identity;\n        uint recipients;\n        string certificateName;\n        uint certificateCost;\n        uint holding;\n        address payable author;\n        mapping(address => bool) recipientsMapping;\n    }\n    \n    struct Request {\n        uint id;\n        uint certificateId;\n        address certificateOwner;\n        address studentId;\n        bool approved;\n    }\n    \n    function newCertificate(string memory name, uint cost) public {\n        Certificate storage c = certificates[certificateCount];\n        c.identity = certificateCount;\n        c.certificateName = name;\n        c.author = msg.sender;\n        c.recipients = 0;\n        c.certificateCost = cost;\n        c.holding = 0;\n        certificateCount++;\n    }\n    \n    function directCreation(string memory name, address recipient) public {\n        Certificate storage c = certificates[certificateCount];\n        c.identity = certificateCount;\n        c.certificateName = name;\n        c.author = msg.sender;\n        c.recipients = 0;\n        c.certificateCost = 0;\n        c.holding = 0;\n        c.recipientsMapping[recipient] = true;\n        certificateCount++;\n    }\n    \n    function approveRequest(uint _id, address student, uint reqid) public payable {\n        Certificate storage c = certificates[_id];\n        require(msg.sender == c.author, 'You are not authorised');\n        \n        c.recipientsMapping[student] = true;\n        msg.sender.transfer(c.certificateCost);\n        c.holding = c.holding - c.certificateCost;\n        delete requests[reqid];\n        c.recipients++;\n        requestsCount--;\n    }\n    \n    function purchaseCertificate(uint _id, uint cost) public payable {\n        require(_id > 0 && _id <= certificateCount, 'Id not valid');\n        Certificate storage c = certificates[_id];\n        require(cost >= c.certificateCost, \"This certificate is worth more.\");\n        c.holding = c.holding + cost;\n        \n        Request storage r = requests[requestsCount];\n        r.id = requestsCount;\n        r.certificateOwner = c.author;\n        r.certificateId = _id;\n        r.studentId = msg.sender;\n        requestsCount++;\n    }\n    \n    function checkValidity(uint _contractId, address _student) public view returns (bool) {\n        Certificate storage c = certificates[_contractId];\n        return(c.recipientsMapping[_student]);\n    }\n    \n}",
  "sourcePath": "/Users/skhiearth/Desktop/BlockCred/BlockCred/src/contracts/BlockCred.sol",
  "compiler": {
    "name": "solc",
    "version": "0.5.16+commit.9c3226ce.Emscripten.clang"
  },
  "schemaVersion": "3.3.0",
  "updatedAt": "2020-10-29T09:21:49.694Z",
  "networkType": "ethereum",
  "devdoc": {
    "methods": {}
  },
  "userdoc": {
    "methods": {}
  }
}